:020000040800F2
:10000000E860002055020008D12A0008A12000085D
:100010006928000849100008994C000800000000F9
:100020000000000000000000000000009D0100082A
:100030005118000800000000F1010008193C0008F8
:100040006F0200086F0200086F0200086F020008CC
:100050006F0200086F0200086F0200086F020008BC
:100060006F0200086F0200086F0200086F020008AC
:100070006F0200086F0200086F0200086F0200089C
:100080006F0200086F0200086F0200086F0200088C
:10009000051200086F0200086F0200086F020008D6
:1000A0006F020008C94000086F020008ED3C00081C
:1000B000D9400008E9400008FD4000086F02000830
:1000C0006F0200086F0200086F0200086F0200084C
:1000D0006F020008994800086F020008B149000843
:1000E0006F0200086F0200086F0200086F0200082C
:1000F0006F0200086F0200086F0200086F0200081C
:100100006F0200086F020008114100086F0200082A
:10011000414600086F0200086F0200086F020008E5
:100120006F0200086F0200086F0200086F020008EB
:100130006F0200086F0200086F0200086F020008DB
:100140006F0200086F0200086F0200086F020008CB
:100150006F0200086F0200086F0200086F020008BB
:100160006F0200086F0200086F0200086F020008AB
:100170006F0200086F0200086F0200086F0200089B
:100180006F0200086F020008DFF80CD000F068FB77
:100190000048004761620008E86000202A4B1968A7
:1001A0000868B0E8F04F80F30988BFF36F8F4FF015
:1001B000000080F3118870470000000006480068C6
:1001C000006880F3088862B661B6BFF34F8FBFF353
:1001D0006F8F00DF00BF00BF08ED00E0DFF80C000C
:1001E000016841F470010160704700BF88ED00E0D4
:1001F000EFF30980BFF36F8F134B1A681EF0100FD7
:1002000008BF20ED108A20E9F04F106008B44FF0CD
:10021000500080F31188BFF34F8FBFF36F8F08F04A
:10022000CFF84FF0000080F3118808BC1968086807
:10023000B0E8F04F1EF0100F08BFB0EC108A80F34A
:100240000988BFF36F8F704738010020EFF30580F6
:10025000704700000648804706480047FEE7FEE773
:10026000FEE7FEE7FEE7FEE7FEE7FEE7FEE7FEE766
:100270002D3C00088901000840EA01039B0703D0D8
:1002800009E008C9121F08C0042AFAD203E011F8D5
:10029000013B00F8013B521EF9D27047D2B201E097
:1002A00000F8012B491EFBD270470022F6E710B57B
:1002B00013460A4604461946FFF7F0FF204610BDD4
:1002C0002DE9FE4F804681EA0300C00F0C460090E6
:1002D00021F0004123F00045B8EB0200A94105D20E
:1002E0004046214690461C460B46024623F00040FD
:1002F000104347D0270DC7F30A00C3F30A510290F9
:10030000401A019040286BDAC3F3130040F4801BBD
:100310000098924620B10023D2EB030A63EB0B0B4B
:1003200001985946C0F14002504600F0B4F9064623
:100330000D4650465946019A00F0BCF910EB0800F2
:100340006141002487EA115284EAE7731A4340D0DE
:10035000009A62B3019A012A4FEA075215DC001B8A
:1003600061EB02014FF0004202EA0752CDE9004280
:10037000001C41F5801132462B4600F0F3F903B022
:10038000BDE8F08F40462146F9E7001B61EB020112
:10039000001C41F5801300185B412018A2F50017DE
:1003A00047EB030140EAD570B6196D4111E06D08C5
:1003B0004FEA360645EAC0754FEA0752001B61EB6B
:1003C0000201001C41F5801149084FEA3000001974
:1003D000514132462B4603B0BDE8F04F00F0B3B9AF
:1003E0000098012240000023D0EB020263EBE0738F
:1003F000009821464FEAE074B8EB000061EB04017D
:10040000E9E783F000435BE781F0004158E72DE91D
:10041000FE4F81EA030404F0004421F000410094FF
:100420004FF0000B23F0004350EA01045ED052EA83
:1004300003045BD0C3F30A54C1F30A552C44A4F25D
:10044000F3340194A0FB0254C1F3130141F4801171
:10045000C3F3130343F4801301FB024400FB034E78
:10046000840A970A44EA815447EA8357A4FB076841
:1004700002958D0A05FB07854FEA932C04FB0C546B
:100480002705029D4FEA065847EA1637B5EB0805DF
:100490006EEB070C870E920E47EA811742EA831231
:1004A000A7FB0201B6EB0B0164EB00042B0D43EA42
:1004B0000C335E1844EB1C50DA465146E7FB020150
:1004C000C5F313044FEA0B3343EA14534FEA0432E3
:1004D000019C43EA0603A4F10C040294009CCDE9BC
:1004E00000B400F03FF903B0BDE8F08F00200146F2
:1004F000F9E72DE9F04D81EA030404F0004B21F007
:10050000004514464FF0000A23F0004150EA05026E
:1005100020D054EA01021DD0C5F30A570246C5F3A4
:100520001303C1F31300C1F30A5640F4801543F4DA
:100530008013A7EB0608101BD64608F2FD3873EBB4
:10054000050002D308F1010801E092185B41B8F1FF
:10055000000F03DA00200146BDE8F08D00204FF4C3
:100560008011064684460EE0171B73EB050705D382
:10057000121B63EB050306434CEA010C49084FEAE2
:10058000300092185B4150EA0107EDD152EA0300B6
:1005900012D082EA040083EA0501084305D0101B4B
:1005A000AB4106D20122002306E000224FF00043B7
:1005B00002E06FF0010253101AEB06004CEB0851F9
:1005C00010EB0A0041EB0B01BDE8F04D00F0BBB8A9
:1005D0000EB5C10F80EAE0700844CA07002140F25E
:1005E00033438DE80E000A460B4600F0BBF803B01B
:1005F00000BD0EB540F2334102910021CDE900115A
:100600000A460B4600F0AEF803B000BD00F0004211
:1006100030F000400AD0C10D01F56071C0F3160042
:1006200042EA0151C20840071143704700200146C9
:10063000704701F0004330B421F0004150EA01025C
:1006400006D00A0DA2F56072C1F31301002A02DC84
:1006500030BC00207047440F44EAC104C100E018D8
:1006600030BC00EBC25000F037B830B50B46014645
:1006700000202022012409E021FA02F59D4205D341
:1006800003FA02F5491B04FA02F52844151EA2F1EB
:100690000102F1DC30BD202A04DB203A00FA02F12D
:1006A000002070479140C2F1200320FA03F3194360
:1006B00090407047202A06DBCB17203A41FA02F01F
:1006C00043EAE07306E041FA02F3D040C2F12002AF
:1006D00091400843194670470029A8BF7047401C45
:1006E000490008BF20F00100704710B4B0FA80FC48
:1006F00000FA0CF050EA010404BF10BC704749B185
:10070000CCF1200421FA04F411FA0CF118BF0121F4
:1007100021430843A3EB0C01CB1D4FEA00614FEAD4
:10072000102042BF002010BC704700EBC3501044A3
:100730000029A4BF10BC7047401C490008BF20F02E
:10074000010010BC704710B5141E73F1000408DAE4
:10075000401C41F1000192185B411A4301D120F085
:10076000010010BD2DE9F04D92469B4611B1B1FA42
:1007700081F202E0B0FA80F220329046FFF78BFF60
:1007800004460F4640EA0A0041EA0B0153465A4626
:10079000084313D0114653EA010019D0C8F14002B2
:1007A000504600F06FF805460E4650465946424600
:1007B000FFF771FF084305D0012004E020463946C9
:1007C000BDE8F08D0020054346EAE0762C43374330
:1007D0000A986305E40AA0EB08000022FD0A44EA37
:1007E00047540A3002D500200146E9E701051019F7
:1007F0006941DDE9084500196941BDE8F04DA2E70E
:1008000070B521F0004303430CD0C1F30A55002416
:10081000D5EB040564EB0403D617AD1AB34102DB34
:100820000020014670BD201841EB025170BD000050
:1008300030B5041E71F1000404DB4FF00044404267
:1008400064EB0101141E73F1000405DB1C464FF03C
:100850000043524263EB0403994208BF904230BD0B
:10086000064C074D06E0E06840F0010394E80700FD
:1008700098471034AC42F6D3FFF78AFCB4A50008C1
:10088000D4A50008202A04DB203A21FA02F0002136
:10089000704721FA02F3D040C2F120029140084390
:1008A000194670472DE9F04D00231A461B1A8A415C
:1008B00003DB00200146BDE8F08DC1F30A52C1F30D
:1008C000130141F480154FF0000BD10702D100183D
:1008D0006D41521E0027044640F2FF11384601EBDD
:1008E000620A3E468046024600204FF48011FFF720
:1008F000C9FFC2197141BB1846EB0100B4EB030CF0
:1009000075EB000C04D3E41A65EB000517460E46A0
:10091000241908F101006D4180463428E3DDF919FE
:1009200046EB0600091BA84103D24FF0FF321346E5
:1009300001E0002213461BEB070046EB0A51BDE81D
:10094000F04DFFF700BF70B58C1810F8015B15F083
:10095000070301D110F8013B2A1106D110F8012B31
:1009600003E010F8016B01F8016B5B1EF9D12B0756
:1009700005D40023521E0DD401F8013BFAE710F80C
:10098000013BCB1A921C03E013F8015B01F8015BF9
:10099000521EF9D5A142D8D3002070BD002981682C
:1009A00002D041F0010101E021F0010181607047B6
:1009B000084B10B5D3F8042307490A40D0E90014C6
:1009C0002143D0E90240044321431143C3F80413F7
:1009D00010BD000000200140E030FCFFC06C80B280
:1009E00070470246002012680A4200D0012070477A
:1009F00030B542680F4B0C791A400B6842EA04226A
:100A00001343436082680C4B4D791A40D1E903438C
:100A100023438C6844EA4504234313438360C26A3A
:100A2000097D22F47002491EC9B242EA0151C16235
:100A300030BD0000FFFEFFFCFDF7FFC070B50726CC
:100A400009290AD9C568A1F10A0404EB4404A640A7
:100A5000B543A3401D43C56007E0056901EB4104B0
:100A6000A640B543A3401D4305611F23072A09D2B1
:100A7000446B521E02EB820293409C4391400C4314
:100A8000446370BD0D2A09D2046BD21F02EB8202AF
:100A900093409C4391400C43046370BDC46A0D3A7B
:100AA00002EB820293409C4391400C43C46270BDB0
:100AB000816841F0804181607047000038B5364858
:100AC0009FED360ADFED360A90ED001A51EE000A6E
:100AD000B1EE041A60EE810AB3EE0A1AC0EE811A72
:100AE000FDEEE10A10EE903A642B00DD64232D4800
:100AF000D0ED000A60EE800AFDEEE00A10EE900AEA
:100B0000002800DA40422849D1ED000A20EE800A90
:100B1000BDEEC00A10EE101A002900DA4942234C3B
:100B20006278A2B100226270214C2578012D10D08C
:100B3000204DB5F904403AB3B5F90220B5F90010DB
:100B400001B02346BDE830401BA004F051B901229A
:100B5000E9E71D4890ED000A1C48BDEEC00A10EE02
:100B6000103A90ED000A1A48BDEEC00A10EE102AA5
:100B700090ED000A17A0BDEEC00A10EE101A04F0A6
:100B800037F90020207038BDCAB2C1B215A0009458
:100B900004F02EF938BD0000180000200000C84203
:100BA0000000FA44CC5A0020E85A002084020020B9
:100BB000E7010020A00200207B4225643A25643A28
:100BC00025647D2400000000B8010020B40100204D
:100BD000B00100207B4325643A25643A25647D24D6
:100BE000000000007B4125643A25643A25643A25DB
:100BF000647D240030B5244B00242B28D97914D0EF
:100C0000D1B39A7903F12005521CD2B205EB8105CC
:100C10009A7155F8045CAD5C854213D1187A401C7A
:100C2000C0B2187222280AD024E0491CD9719C71E4
:100C3000187A401C1872587A401C58721AE01C72BC
:100C40005C7215E0104D183505EB810555F8045C14
:100C5000AA5C824204D001290FD1587A0D280CD306
:100C6000587A401CC0B258722C2803D15C721C7296
:100C7000DC719C71012030BD03E01C725C72DC7180
:100C80009C710020F7E70000BC000020F0B58DB09B
:100C90000121042002F0DEFB0121022002F0DAFB38
:100CA00001210F02384602F0EDFB0E2003260690CC
:100CB0008DF81C6000248DF81F4006A9184801F02B
:100CC0003BF801258DF81C6006958DF81F4006A99C
:100CD000144801F031F80121384602F0DFFB002111
:100CE000384602F0DBFB089428040B94CDE9090494
:100CF00008A8FFF75DFE8DF8044000948DF80540CC
:100D000002940494084C8DF8145069462046FFF76D
:100D10006FFE01212046FFF741FE0DB0F0BD00003F
:100D20000008024000040240002001402DED028B2B
:100D300082B005F04BFADFF8A0A2DFF8A0B2DFF82E
:100D4000A0824FF000099FEDA78A00900A21684613
:100D500007F064F9A44D40F6B831286A884201DAF8
:100D6000401C286201F0CEF8A04C2078012806D162
:100D70009AF8000018B984F8009000F0CBFF296AB7
:100D800040F26A40814263DD9AF80000012815D1E3
:100D900097490878401CC0B2087064280ED96520B5
:100DA000087084F80090934888F800908BED008AD2
:100DB00080ED008A904880ED008A02E020780128CA
:100DC00005D08E48007860B301F01EF840E08C4EEC
:100DD0003078012898F8000011D050B1864886F884
:100DE0000090F0EE480A90ED001A9BED000A00F02A
:100DF00031FD307898F8001008430BD028E0002827
:100E0000ECD18048F0EE480A90ED001A7E4890ED53
:100E1000000AECE7B0EE480AB0EE401AF0EE400AE5
:100E200014E07A48007810B102F0BAFB10E078487C
:100E3000007810B102F054FA0AE0764890ED001AFA
:100E40007548D0ED000A754890ED000A00F002FDEB
:100E500001F060FB06F01EFC286AA0F2EF21B1F55C
:100E6000AE7F15D840F2B631884206DDB0EE480AB2
:100E7000B0EE401AF0EE400A05E0F0EE480AB0EE9F
:100E8000601A9FED670A00F0E5FC06F02FFB0DE00D
:100E9000A0F24D401D2809D2B0EE480A0120687129
:100EA000B0EE401AF0EE400A00F0D4FC5D4890ED40
:100EB000000ABDEEC00A10EE100A03F087FB08B965
:100EC000E86868B1207830B15748D0F8100210B106
:100ED0005648007820B100231A461946184661E0AA
:100EE000534CB2EE040AD4ED040A80EE801ADFED12
:100EF000510A514D514E524F21EE201A84ED031AE2
:100F0000D5ED041A81EE801A21EE201A85ED031A20
:100F1000D6ED041A81EE801A21EE201A86ED031A0E
:100F200097ED041AC1EE001A21EEA00A87ED030A1C
:100F300004F070FF43480078B8B3012836D0022887
:100F400034D003280ED004280CD005280AD0062857
:100F500008D0072806D0082804D0092802D00A287B
:100F60007FF4F4AE97ED030AB1EE400ABDEEC00A7D
:100F700010EE103A96ED030AB1EE400ABDEEC00A3B
:100F800010EE102A95ED030AB1EE400ABDEEC00A3C
:100F900010EE101A94ED030AB1EE400ABDEEC00A3D
:100FA00010EE100A02F02CFDD0E6FFE797ED030AE1
:100FB000BDEEC00A10EE103A96ED030ABDEEC00A6F
:100FC00010EE102A95ED030ABDEEC00A10EE101ABD
:100FD00094ED030AE2E70000C201002000010020B6
:100FE000FD00002000000000FC010020E9000020BE
:100FF000C30100200401002008010020BD010020E1
:10100000E8000020140100200C010020BE01002097
:10101000BC010020D0010020CC010020C80100202C
:101020009A99193E1800002000004242AC010020AD
:10103000CC5A00200010A447E85A0020045B00208E
:10104000205B0020AD010020FEE700001CB501215F
:10105000082002F0FFF94FF40060009001208DF8A5
:10106000040000218DF8061003218DF805108DF87D
:1010700007006946014800F05FFE1CBD000C0240FD
:101080002DE9F04F87B00024E8B3E1B3DAB3D3B36E
:10109000491E401E01F0FF09C7B2521E5B1E01210E
:1010A000D6B29DB2084602F0D5F90121480602F0F9
:1010B000DDF94FF4C050049002208DF814004FF079
:1010C00000088DF8168003208DF81500DFF82CA19C
:1010D0004FF0010B8DF817B004A9504600F02CFE1C
:1010E00009220B21504600F063FE09220C215046D4
:1010F00000F05EFE4248C0F80080016841F0010146
:101100000160021D0AE0FFE7012007B0BDE8F08F93
:10111000641CA4B2642C01D90220F6E71168C90747
:10112000F6D00168824601600168016001680160D3
:10113000016841F01001016001680160016801600F
:101140002F4943461C31C1F80080D1F80080DDF8FA
:1011500040C048EA8C7CC1F800C0D1F800C04CEA1D
:1011600007670F60D1F800C04CEA09570F600F689D
:1011700047EA06460E600E682E430E60016821F0B5
:10118000010101604FF6F07005E0641CA4B28442D6
:1011900001D90320B9E71168C907F6D18DF80AB063
:1011A0008DF80B308DF80CB0ADF80030ADF8043090
:1011B0005C46ADF80230ADF80630ADF808308DF879
:1011C0000DB0684600F036FA0D481430016841F061
:1011D0000201016014208DF818008DF819400320D9
:1011E0008DF81A008DF81B4006A801F073FC01224F
:1011F0000221504600F084FA002086E700000240F9
:1012000000640040F0B588B002AC07A8CDE9000446
:1012100006AB05AA04A9002000F004F96948049A65
:10122000012382420CD100210846255C401C294440
:10123000C0B2C9B20828F8D3082901D162480370A6
:1012400000209FED620AA2F5807181393BD160498F
:101250000B70604908706049087060490870604907
:101260000870604908709DF809109DF8083001EB7E
:10127000032109B200EE901A5B49F8EEE00A80EE15
:10128000801A81ED001A9DF80B109DF80A3001EBD1
:10129000032109B200EE901A5449F8EEE00A80EEFC
:1012A000801A81ED001A9DF80D109DF80C3001EBAD
:1012B000032109B200EE901A4D49F8EEE00A80EEE3
:1012C000801A81ED001AB2F5C17F79D149494A4BA4
:1012D0004A4C08709DF809009DF80810484D00EB35
:1012E000012000B200EE900A474A484FF8EEE00AAB
:1012F000DFF81CC180EE801A83ED001A9DF80B0008
:101300009DF80A1000EB012000B200EE900AF8EE02
:10131000E00A80EE801A84ED001A9DF80D009DF819
:101320000C1000EB012000B200EE900A3549F8EEF7
:10133000E00A80EE801A9FED390A85ED001A9DF8CB
:101340000E0000F001060E70C0F340111170C0F3E2
:1013500000123A70C0F3C0078CF80070DFF8B4C018
:10136000C0F3800011448CF80000394408182A4961
:10137000087005D185ED000A84ED000A83ED000AAE
:101380002EB185ED000A84ED000A83ED000A9DF878
:101390000F00234980280AD9C0F58070A0EB001007
:1013A000400000EE100AB8EEC00A07E008E0C0EB0B
:1013B0000010400000EE100AB8EE400A81ED000A6D
:1013C00008B0F0BD78563412C201002000007A4403
:1013D000BF010020BC010020BD010020BE01002093
:1013E000C001002080020020C8010020CC010020A4
:1013F000D0010020C30100200001002004010020D2
:1014000008010020FC000020180100201901002024
:101410001A0100201B010020FD0000200000000038
:10142000EC000020F0B5224CDDE9057504EB00145A
:10143000D4F8B06516F004061670D4F8B02532D092
:10144000D2080A60D4F8B01501F002011970D4F87E
:10145000B41501F00F013970D4F8B8152970D4F81B
:10146000B815090A6970D4F8B815090CA970D4F830
:10147000B815090EE970D4F8BC152971D4F8BC155B
:10148000090A6971D4F8BC15090CA971D4F8BC1506
:10149000090EE97148B1012804D10648016841F0FC
:1014A00020010160F0BD520DCBE70248001FF5E7B7
:1014B000006000401064004038B50024009108230B
:1014C0002246012100F02EF8054640F6FF7301E0A8
:1014D000641CA4B2284600F07BF8072801D09C4287
:1014E000F6D39C4201D3012038BD002038BD38B569
:1014F0000024009108232246214600F013F80546F7
:1015000040F6FF7301E0641CA4B2284600F060F8C6
:10151000072801D09C42F6D39C4201D3012038BD5C
:10152000002038BDF0B506462748059D04686401D3
:1015300001D5002008E00468240101D5012003E062
:101540000068C0003CD50220204C002704EB0014AA
:10155000C4F8807599B3F600D4F880753743C4F8A1
:101560008075D4F8806546EA8101C4F88015D4F806
:10157000801541EA4201C4F88015D4F8842503F0AF
:101580000F0122F00F02C4F88425D4F884250A4301
:10159000C4F884252979D5F8052041EA0221C4F848
:1015A0008C152978D5F8012041EA0221C4F8881564
:1015B000D4F8801541F00101C4F88015F0BD01E0B8
:1015C000FF20FBE77605C7E70864004000600040A5
:1015D000174928B1012810D002281BD005207047D8
:1015E00008680A6800F0010002F00202024308687D
:1015F00000F0806042EA1060704708680A6800F0F6
:10160000010002F002020243086800F0006042EAB2
:101610005060704708680A6800F0010002F002029A
:101620000243086800F0805042EA90607047000072
:1016300008640040F0B5827A2F4D012191402A685C
:1016400042F001022A602C4E1C3632688A43326016
:10165000294A047B294B0C32A4B914688C431460CA
:101660004488C78844EA0744877A03EBC707C7F86A
:1016700040460488878844EA0744877A03EBC70713
:10168000C7F84446047B012C12D114680C43146043
:10169000847A026803EBC4044FEA3242C4F840265D
:1016A000847A426803EBC4034FEA3242C3F844260B
:1016B000114AC37A121D002B136806D00B43136026
:1016C0000D4A0389143213B104E08B43F7E7136822
:1016D0008B4313600389012B02D113680B43136002
:1016E000407B012802D1306808433060286820F030
:1016F00001002860F0BD000000660040006000406E
:10170000002A426901D00A4300E08A4342617047DF
:101710007CB5174C00206D46215C2954401CC0B29A
:101720000828F9D3294640F20110FFF7E0FE002017
:101730002118097A2954401CC0B20828F8D36946F8
:101740004FF48170FFF7D3FE00202118097C295443
:10175000401CC0B20828F8D3694640F20310FFF7D6
:10176000C6FE04480078002801D000F005F87CBDD2
:1017700012070020C20100201CB500208DF80000D7
:101780001A48DFED1B0A90ED000A20EE200ABDEE9C
:10179000C00A10EE101A09128DF8011010EE101A7E
:1017A0008DF8021090ED010A20EE200ABDEEC00A6D
:1017B00010EE101A09128DF8031010EE101A8DF8A1
:1017C000041090ED020A694620EE200ABDEEC00A20
:1017D00010EE100A00128DF8050010EE100A8DF8B8
:1017E000060040F20510FFF782FE1CBDF00000204D
:1017F00000007A4430B503460020012908D10022B8
:10180000094C03E0A55C6840521CD2B29A42F9D35D
:10181000002908D1044A323203E0545C6040491C7C
:10182000C9B29942F9D330BD1207002010B5044661
:101830000020012908D10021044A03E0535C5840EC
:10184000491CC9B2A142F9D310BD000064070020B1
:101850007047000030B5444CF0EE412AF0EE601ABB
:1018600094ED091AF1EE410A06F0EAF894ED091A2E
:10187000B0EE402AB0EE610AF1EE410A06F0E0F85F
:1018800094ED091AF0EE401AB0EE620AF1EE410A48
:1018900006F0D6F83548364DB0EE401A0078E0B381
:1018A00085ED002AC5ED011A85ED021A314895ED46
:1018B000002AD5ED011A90ED001A2F4831EE820A68
:1018C000D5ED020A90ED003A2C4BF0EE402A31EEB5
:1018D000031A72EE611A2A482A4900EEC10A40EE44
:1018E000812A294A83ED040AB0EE403AB0EE610A3B
:1018F00040EE811A00EEC10A80ED040AC1ED042A0F
:10190000C2ED041A94ED091AB0EE430AF1EE410A51
:1019100006F096F883ED040A00E01EE094ED091A43
:1019200090ED040AF1EE410A06F08AF880ED040A0F
:1019300094ED091A91ED040AF1EE410A06F080F8DF
:1019400081ED040A94ED091A92ED040AF1EE410AC0
:1019500006F076F882ED040A30BDF0EE610AB0EED2
:10196000420A02F0BFF8A1E7FC010020E9000020D4
:10197000C05A0020E0010020DC010020CC5A0020E9
:10198000E85A0020045B0020205B00201CB50121E8
:10199000102001F05FFD1020009000208DF8040061
:1019A00003208DF8050001208DF8070069460248E4
:1019B00000F0C2F91CBD000000100240F0B501218A
:1019C00089B0084601F052FD0121032001F042FDDB
:1019D00003258DF8055002264FF400408DF8046071
:1019E00001242B4F00908DF806408DF80740694682
:1019F000384600F0A1F98DF805508DF804608DF897
:101A000006408DF807400820224C00906946204689
:101A100000F092F901220F21384600F0C9F90122A5
:101A20000321204600F0C4F902A802F0C5FD0024FD
:101A30004FF6FF70ADF8084003907507ADF8104001
:101A4000ADF80A4002A9284602F078FD00231A46A4
:101A50000321284602F08BFB05A802F00BFCADF831
:101A60001C4005A9284602F0AFFB0121284602F0E0
:101A700063FB01221146284602F004FC002128469F
:101A800002F032FD0121284602F05CFB09B0F0BDF6
:101A9000000002400004024030B589B0012102205C
:101AA00001F0E4FC0121084601F0D4FCC0200390C1
:101AB00003208DF8110002208DF8100001208DF810
:101AC0001200224C8DF8130003A9204600F034F9CF
:101AD00002220621204600F06BF90222072120464F
:101AE00000F066F9684602F067FD00244FF6FF70CB
:101AF000174DADF800400190ADF80840ADF8024038
:101B00006946284602F01AFD00231A46032128469A
:101B100002F02DFB05A802F0ADFBADF81C4005A9B5
:101B2000284602F051FB0121284602F005FB012264
:101B30001146284602F0A6FB0021284602F0D4FCFC
:101B40000121284602F0FEFA09B030BD0000024033
:101B50000004004030B589B00121042001F086FC6A
:101B60000121022001F076FCC020039003208DF8B3
:101B7000110002208DF8100001208DF81200224C77
:101B80008DF8130003A9204600F0D6F802220621A2
:101B9000204600F00DF902220721204600F008F946
:101BA000684602F009FD00244FF6FF70174DADF8AE
:101BB00000400190ADF80840ADF802406946284663
:101BC00002F0BCFC00231A460321284602F0CFFA9B
:101BD00005A802F04FFBADF81C4005A9284602F00D
:101BE000F3FA0121284602F0A7FA012211462846FD
:101BF00002F048FB0021284602F076FC012128462D
:101C000002F0A0FA09B030BD000402400008004014
:101C100030B589B00121082001F028FC01210846D7
:101C200001F018FC032003908DF8110002208DF8BC
:101C3000100001208DF81200224C8DF8130003A92A
:101C4000204600F079F802220021204600F0B0F88A
:101C500002220121204600F0ABF8684602F0ACFCFD
:101C600000244FF6FF70184DADF800400190ADF81C
:101C70000840ADF802406946284602F05FFC0023A8
:101C80001A460321284602F072FA05A802F0F2FA79
:101C9000ADF81C4005A9284602F096FA0121284615
:101CA00002F04AFA01221146284602F0EBFA00211E
:101CB000284602F019FC0121284602F043FA09B037
:101CC00030BD000000000240000C0040B5EEC00A2C
:101CD0000E48F1EE10FA04D2B1EE400A4FF0FF3197
:101CE00000E00121FDEEC00A8160C0ED000AF8EEBF
:101CF000E00A30EE600ADFED060A20EE200ABDEEB3
:101D0000C00A80ED010A014870470000C8020020A7
:101D100000007A441CB505A0D0E90010CDE9001000
:101D200069460448FFF7C8FB1CBD00000101010122
:101D30000101010178563412F0B5002201274FF05D
:101D4000030C0B6807FA02F52B40AB422CD1066856
:101D500053000CFA03F4A64306600E79D0F800E0B5
:101D60009E4046EA0E0606600E79012E01D0022E34
:101D700012D18668A64386604E79D0F808E09E406E
:101D800046EA0E0686604668AE43466045688E7930
:101D90009640B6B235434560C568A543C560CC7969
:101DA0009C40C3681C43C460521C102AC9D3F0BDB8
:101DB0004B07DB0E9A40C90810B500EB8100016AA1
:101DC0000F249C40A1430162016A1143016210BDCE
:101DD000418370470183704710B50A4C01460723C1
:101DE00001222046FEF72AFE2046FEF761FE022170
:101DF0002046FEF7F6FD0028F9D02046BDE8104049
:101E0000FEF7ECBD0020014010B4334C31489FED8B
:101E1000341A94ED000A037830483249324AF1EE20
:101E2000400A092B24D2DFE803F02305080B101326
:101E3000181B200080ED000A0CE080ED000A01E094
:101E400080ED001AC1ED000A22E0C0ED000AF9E7BA
:101E5000C0ED000A81ED001A1AE0C0ED000A01E0B1
:101E600080ED001A81ED000A12E080ED000AF9E72A
:101E70001E4B80ED001A81ED001A1B78DFED1C0A65
:101E8000012B18D01B4B1B78012B19D082ED001AA7
:101E9000D0ED000A9FED181A80EE810A80ED000A4D
:101EA000D1ED001AC1EE810AC1ED000A92ED001ACF
:101EB00010BCFFF7CFBC80EE201A9FED100A03E0A4
:101EC00080EE201A9FED0E0A21EE000A82ED000A34
:101ED000DEE70000C1010020B0010020C8010020A1
:101EE00000000000CC010020D0010020E40100200F
:101EF0000000FA43E501002000007A44DB0FC93FEF
:101F0000DB0FC9BF10B502202DED048B01F028FBBB
:101F100000EE100A0320B8EEC09A01F021FB00EE9B
:101F2000100A0420F8EEC08A01F01AFB404200EECD
:101F3000100A0520B8EEC08A01F012FB404200EE04
:101F4000100A2E48B8EEC01A417941BB90ED1D0A27
:101F5000B8EEC00A30EE090ABDEEC00A80ED1D0AD7
:101F600090ED1E0AB8EEC00A30EE280ABDEEC00A97
:101F700080ED1E0A90ED1F0AB8EEC00A30EE080A86
:101F8000BDEEC00A80ED1F0A803090ED000AB8EE69
:101F9000C00A30EE010ABDEEC00A80ED000ADFED96
:101FA000181A184829EE210AD0ED000A164821EE29
:101FB000211A20EE202A90ED000A1448C2EE002AD1
:101FC00028EEA12A22EE202AC0ED002AC2EE002A25
:101FD00028EE212A0E4822EE202A61EE200A80EE09
:101FE000801AC0ED002A0B48C2EE002AC0ED002A7C
:101FF000094880ED001ABDEC048B10BDFC010020E7
:102000000000C842D8010020D4010020CC5A002092
:10201000E85A0020045B0020205B00202DE9F041FD
:1020200000250E4607462C4608E03846FFF7D4FE4A
:102030000544052004F074F8641CE4B2B442F4D3FF
:10204000B5FBF6F080B2BDE8F081000010B50820C5
:10205000FFF7C2FEFEF7CDFA9FED0B1B53EC112BE1
:10206000FEF7D5F99FED0A1B53EC112BFEF7CFF9C4
:102070009FED091B53EC112BFEF7C9F9FEF7D9FAB6
:1020800000EE100A10BD0000EC51B81E85EB0940AF
:102090000000000000002640000000000000303F6B
:1020A000FEE7000070B50D4C0025C4F8A4520C48A2
:1020B000016821F440310160016841F48031016020
:1020C000C4F8A052012004F5287404F045F801205A
:1020D000606004F041F8656070BD0000008040421F
:1020E000000402401CB50121022001F0B3F94FF4B5
:1020F0004070012400908DF8044000208DF8060007
:1021000003208DF805008DF8074069460448FFF765
:1021100013FE0448C0F8A442C0F8A0421CBD000051
:10212000000402400080404270B50D4C0026C4F807
:10213000A4620C48016821F440310160016841F457
:10214000803101600125C4F8A052284604F52874A6
:1021500004F002F86560012003F0FEFF666070BDC8
:1021600000804042000402402DE9F04781461848B3
:102170000025016821F44031016001680160154EBD
:102180002C462F464FF00108C6F8A472012003F038
:10219000E3FFC6F8A4826806D6F82012000E11B13B
:1021A00040F0010501E020F00105012003F0D4FF1B
:1021B000641CE4B2082CE7D3B9F1000F04D0FFF798
:1021C000B3FF2846BDE8F087FFF76CFFF9E7000092
:1021D000000402400080404270B50D46044600F005
:1021E0001BF8204600F0B0F800F05EF8284600F03A
:1021F000ABF800F059F800F00FF844F0010000F0DF
:10220000A3F800F051F80120FFF7AEFF044600F0FC
:102210002BF8204670BD000070B51148016821F40C
:1022200040310160016841F4803101600D4C0120B2
:10223000C4F8A002D4F8201200290FD0C4F8A402D8
:1022400003F08AFF0025C4F8A052D4F82002002829
:1022500004D1012003F080FFC4F8A45270BD000037
:1022600000040240008040420D4810B5016821F48E
:1022700040310160016841F480310160094C002067
:10228000C4F8A402C4F8A002012004F5287403F0E5
:1022900063FF012060602060BDE8104003F05CBF78
:1022A000000402400080404270B5124800240168DA
:1022B00021F440310160016801600F4D0126C5F82D
:1022C000A062304603F048FFC5F8A46207E0641C32
:1022D000E4B2322C03D9FFF7C7FF002070BD012004
:1022E00003F03AFFD5F820020028F0D1C5F8A40287
:1022F000012070BD00040240008040422DE9F04101
:102300001D4614460F468046069EFFF765FF621C79
:10231000FF21C4F1080301FA02F22B445B1ED940ED
:102320000A43C5F108018E40D2B2F1B2C4F10703ED
:10233000D940104040EA01023946404600F034F8E6
:102340000120BDE8F08100002DE9F0410546144868
:10235000016821F440310160016841F4803101607D
:10236000104E0027C6F8A4723C464FF00108E80959
:10237000C6F8A0026806050E012003F0EDFEC6F8BF
:10238000A482012003F0E8FEC6F8A472012003F045
:10239000E3FE641CE4B2082CE9D3BDE8F081000040
:1023A000000402400080404270B515460E460446C7
:1023B000FFF732FF2046FFF7C7FFFFF775FF3046F4
:1023C000FFF7C2FFFFF770FF2846FFF7BDFFFFF7DB
:1023D0006BFFFFF749FF012070BD00001CB5012114
:1023E000042001F037F82020009000208DF8040030
:1023F00003208DF8050001208DF80700694602488A
:10240000FFF79AFC1CBD00000008024000EE100A15
:10241000B7EE001A70B5F8EE400A3948394D00227F
:1024200081EE200ADFED350A037A20EE200A4BB157
:10243000C271C282028342838283D5F81432012B97
:1024400000D10272D5F81432012463B9037A53B96A
:10245000C471438B5B1C9BB243838B4203D9428381
:10246000038B5B1C0383DFED280A068B80EE801A4A
:10247000FCEEC10A10EE903A9BB2B34202D2047253
:10248000032070BDC379B3B3D5F81432012B09D141
:10249000838B5B1C9BB283838B4203D98283C18A6B
:1024A000491CC182DFED190A80EE801AFCEEC10AD8
:1024B00010EE901ADFED160A8AB2C18A8A420ED255
:1024C00080EE801ABCEEC11A11EE102A92B28A4236
:1024D00005D9D5F8141271B90472022070BD80EECE
:1024E000801ABCEEC10A10EE102A92B28A4203D2C0
:1024F0000472012070BDFFE70020FBE700007A4472
:102500002000002000004142000016440000484224
:102510000000FA4370B500216420FFF777FF1349EC
:10252000134B144C144A012810D0022813D003284E
:102530000BD112490120087011490878401CC0B223
:102540000870012801D90020087070BD0D4D287851
:1025500050B100202870186808609888888010683A
:1025600020609088A08070BD0120F3E7AC020020BD
:10257000B2020020B8020020BE0200208702002024
:1025800084020020E90000201CB50121082000F091
:1025900061FF4FF46040009001208DF8040000219D
:1025A0008DF8061003218DF805100B4C8DF80700EF
:1025B00069462046FFF7C0FB4FF480412046FFF7F5
:1025C00009FC4FF400512046FFF704FC4FF4004192
:1025D0002046FFF7FFFB1CBD000C0240BC2801D3C6
:1025E000012210E0622801D302220CE02A2801D344
:1025F000032208E0142801D3042204E00A2801D3AE
:10260000052200E006221A21D020FFF7CDBE10B52A
:1026100004464FF47A70844201D9044602E0042C47
:1026200000D20424B0FBF4F0401EC2B21921D02025
:10263000FFF7BAFE6008BDE81040FFF7CFBF10B546
:1026400080226B21D020FFF7AFFEC82003F068FD89
:1026500000226B21D020FFF7A7FE012000F03AF8FE
:10266000002000F02EF83220FFF7D1FF00223821A1
:10267000D020FFF799FE00226A21D020FFF794FEB8
:1026800000222321D020FFF78FFE80223721D02087
:10269000FFF78AFE7521D020FFF79EFD682801D044
:1026A000012010BD01226B21D020FFF77DFE00220A
:1026B0006C21D020FFF778FE3220FFF7A8FF002022
:1026C00010BD08B50223009004221C21D020FFF782
:1026D00015FE08BD08B50223009004221B21D0205E
:1026E000FFF70CFE08BD000008B503F06FFD0D4CB0
:1026F00040F2EE2500900A21684605F08FFC206824
:10270000A8420ADA401C2060606820612089A0820B
:10271000D4F80A00E061E089208400F005F800F0B8
:1027200047F8E8E79C02002070B53C21D020FFF775
:1027300053FD04463B21D020FFF74EFD04EB002063
:102740001A4C3E212080D020FFF746FD05463D2152
:10275000D020FFF741FD05EB002060804021D02014
:10276000FFF73AFD05463F21D020FFF735FD05EB89
:10277000002000B2A4F10A01A080096840F2EE2214
:10278000914212DB04F118032188198062885A8073
:1027900098809B1F1D88491B21805988511A618090
:1027A0009988401A00F58040A08070BDA6020020E4
:1027B000D0B54421D020FFF70FFD04464321D0209F
:1027C000FFF70AFD04EB0020244C46212080D02096
:1027D000FFF702FD06464521D020FFF7FDFC06EB82
:1027E000002060804821D020FFF7F6FC06464721F4
:1027F000D020FFF7F1FC06EB002001B2221FA180E0
:10280000106840F2EE27164B164EB84204DA4FF02D
:102810000100186030701FE008D14FF000073770DA
:102820004FF4967600F101001E6010600B4B20887B
:1028300003F11203188062885A809980A3F106037D
:102840001E88A0EB060020805888A2EB0000608064
:102850009888A1EB0000A0802846D0BDA0020020EF
:1028600044000020AC010020FEE700002DE9FC5FE1
:1028700001210F2000F0EEFD01248DF80440002519
:102880008DF806504FF480768DF8055000968DF83F
:10289000074069462448FFF74FFA8DF806508DF837
:1028A0000440DFF888A04FF4E0478DF8055000970A
:1028B0008DF8074069465046FFF73EFA8DF8044010
:1028C0008DF80650DFF868B041F201088DF8055028
:1028D000CDF800808DF8074069465846FFF72CFA7E
:1028E0008DF804408DF806508DF805508DF807409E
:1028F000104C4FF4A059CDF8009069462046FFF7E0
:102900001BFA31460848FFF763FA39465046FFF78D
:102910005FFA41465846FFF75BFA49462046FFF703
:1029200057FABDE8FC9F000000000240000402408E
:1029300000080240000C02402DE9F041884607469D
:102940008AB00121022000F09DFD0121042000F049
:1029500081FD394E032206213046FFF729FA032272
:1029600007213046FFF724FA032208213046FFF7FB
:102970001FFA032209213046FFF71AFA4FF470704C
:10298000059002208DF8180003208DF8190000240E
:102990008DF81A4001258DF81B5005A93046FFF728
:1029A000CBF9264EADF81C800897ADF82450ADF851
:1029B0001E4007A9304601F0C1FD6020ADF80000BF
:1029C000ADF80250ADF80C406946304601F062FCAB
:1029D0006946304601F09AFC6946304601F0EAFC4F
:1029E0006946304601F034FD0121304601F0B4FB68
:1029F0000821304601F084FC0821304601F0D0FC6B
:102A00000821304601F01EFD0821304601F05AFD34
:102A10000121304601F086FB084834300460001D77
:102A20000460001D0460001D04600121304601F0B7
:102A300089FB0AB0BDE8F0810008024000040140B3
:102A400030EE202A1F4832EE012A72EE212AB5EE1E
:102A5000002A22EE823ADFED1A2A23EE223ABDEE58
:102A6000C33A13EE101A30EE603A4183B1EE400AD9
:102A700033EE013A30EE600A33EE613A30EE010A8D
:102A800023EE023A30EE210A23EE223A20EE020A29
:102A9000BDEEC33A13EE101A81830B49D1ED000A43
:102AA0000A4991ED001A30EE811AC0EE010A20EEBB
:102AB000A20ABDEEC00A10EE101AC18370470000D2
:102AC00000007A4412070020E0010020DC01002011
:102AD0007047000030B50F23C27801780125FAB1A4
:102AE000144A126801F1E02102F4E062C2F5E062EA
:102AF000C2F30722C2F10404D3404278A240847892
:102B00001C401443220181F80024007800F01F01CA
:102B10008D404009800000F1E020C0F8005130BD38
:102B200001F01F0085404809800000F1E020C0F856
:102B3000805130BD0CED00E00249084302490860B5
:102B4000704700000000FA050CED00E010B4002111
:102B5000084B0A46002003EBC004401CC0B262547C
:102B60008028F8D3491CC9B20829F3D310BC00F05F
:102B7000B7B80000D402002010B57F2816D83F292E
:102B800014D80723A3EBD10301F00701C1F1070417
:102B90000121A140064CDBB204EBC000002AC25C5C
:102BA000C9B201D00A4300E08A43C25410BD0000FC
:102BB000D40200207CB50121082000F04BFC012646
:102BC0008DF804600024F0208DF8064000908DF808
:102BD00005408DF8074069463F48FFF7ADF80121F1
:102BE000080700F043FC012000F02EFC002000F05C
:102BF000A9FC002000F028FC384DC5F89442642060
:102C000005F5257503F08CFA2E600021AE2000F04A
:102C100029F90021D52000F025F90021502000F0ED
:102C200021F90021A82000F01DF900213F2000F02B
:102C300019F90021D32000F015F90021084600F011
:102C400011F90021402000F00DF900218D2000F045
:102C500009F90021142000F005F90021202000F0DE
:102C600001F90021022000F0FDF80021A12000F070
:102C7000F9F80021C02000F0F5F80021DA2000F07A
:102C8000F1F80021122000F0EDF80021812000F081
:102C9000E9F80021EF2000F0E5F80021D92000F04C
:102CA000E1F80021F12000F0DDF80021DB2000F048
:102CB000D9F80021302000F0D5F80021A42000F040
:102CC000D1F80021A62000F0CDF80021AF2000F0BF
:102CD000C9F8FFF73BFF7CBD000C02400080414279
:102CE00070B5104E002505F1B000C0B2002100F013
:102CF000B9F80021084600F0B5F80021102000F0D6
:102D0000B1F8002406EBC4000121405D00F0AAF8F0
:102D1000641CE4B2802CF5D36D1CEDB2082DE2D317
:102D200070BD0000D40200202DE9F04F203A9846F3
:102D30000D468346894602F0FF0A00262EE0B8F1D0
:102D40000C0F08D0174901EB0A100027845D2006FC
:102D500007D5099A08E014490AEB4A0001EB800004
:102D6000F3E7099890B1002229465846FFF704FF7F
:102D70006D1C6006EDB2040EA5EB0901414507D1BB
:102D80000BF101004D4600F0FF0B05E00122EBE7DF
:102D90007F1CFFB2082FDAD3761CF6B24645CED39D
:102DA000BDE8F08F94940008209000082DE9FF4FB3
:102DB00081B00027DDF838B01D46924680463C467B
:102DC0004FF001094FEA5B0627E0281B401EC1B205
:102DD0000A2003F065FABAFBF0F00A21B0FBF1F229
:102DE00001FB120027B9691E8C4201DA48B10127A4
:102DF0003030C2B206FB0480C0B25B46CDF8009012
:102E000006E006FB0480C0B25B462022CDF80090AD
:102E10000299FFF789FF641CE4B2AC42D5D305B038
:102E2000BDE8F08FF8B516460D460446012714E0BC
:102E30007A2C02D900241035EDB23A2D03D90024A2
:102E40002546FFF783FE009732780C23294620465B
:102E5000FFF76AFF0834E4B2761C30780028E7D127
:102E6000F8BD000030B500230E4A012411B1C2F8AC
:102E7000904201E0C2F890320021C2F89C3205066F
:102E800002D5C2F8984201E0C2F89832C2F89C42DA
:102E90004006491C000EC9B20829EED3C2F8904280
:102EA00030BD0000008041420020044A0146115418
:102EB000401CC0B20928FAD370470000D406002095
:102EC0002DE9F84301250746ADF8005020480026BB
:102ED0004670ADF800501F4C80464FF6FF792DE04C
:102EE000BDF80000384202D0C4F8845201E0C4F8B2
:102EF0008462102003F030F9C4F88C52052003F0EE
:102F00002BF9C4F88C62052003F026F9C4F88C5222
:102F1000102003F021F9D4F8000230B198F8011024
:102F2000BDF80020114388F80110102003F014F9B7
:102F3000BDF8001009EA4100ADF80000BDF800003E
:102F4000FF28CDD9BDE8F843102003F005B90000F3
:102F5000D40600200000424270B5FFF7A5FF00F044
:102F60000DF90B480B4AB0F803400A480832448078
:102F70000020012512F8103000F101005B1E05FA57
:102F800003F12142C0B202D01028F3D3002070BD5B
:102F9000D40600204C00002010B5154C0020C4F8C9
:102FA0008802102004F5227403F0D6F80120FFF700
:102FB00087FF4320FFF784FF0020FFF781FF0120F8
:102FC000FFF77EFF0020FFF77BFF0020FFF778FF71
:102FD0000020FFF775FF0020FFF772FF0020FFF7CA
:102FE0006FFF01202060BDE81040102003F0B4B84E
:102FF0000000424210B5154C0020C4F88802102091
:1030000004F5227403F0A8F80120FFF759FF4320CC
:10301000FFF756FF0020FFF753FF0020FFF750FF98
:103020005A20FFF74DFF5A20FFF74AFF5A20FFF7BB
:1030300047FF5A20FFF744FF5A20FFF741FF0120C6
:103040002060BDE81040102003F086B80000424226
:103050007CB50121102000F0FDF900258DF8045009
:10306000032001248DF805000B4E00948DF80740D5
:1030700069463046FEF760FE8DF804400E208DF85C
:10308000065000908DF805508DF80740694630468F
:10309000FEF752FE7CBD00000010024010B5FFF7A5
:1030A0005BFF00EE100A27482C4BB8EE400A0122C5
:1030B00080ED000A2448C17900EE901A2349F8EE09
:1030C000600AC1ED000A017A00EE901A2049F8EE7C
:1030D000600AC1ED000A417901EE101A1D49B8EEEF
:1030E000411A81ED001A807910EE101A01EE100AD3
:1030F0001948B1F1814FB8EE411A80ED001A184815
:1031000001D10178D9B15968002917D010EE901A71
:10311000144B994212DA017800290FD1124940F27A
:10312000EE230968994209DB1049027000200870FB
:103130000F4908700F4908700F49087010BD5A6098
:10314000E4E70000F8010020D4060020E801002098
:10315000EC010020F0010020F40100204C000020D0
:10316000BC0100200000EC429C020020BE010020B7
:10317000BD010020BF010020C00100202DE9FC415D
:1031800000268DF800600125ADF80450224CC4F8EB
:103190008862224F3878FFF793FE7878FFF790FE29
:1031A00002208DF800001E4F4FF6FF782CE0ADF89E
:1031B00004501DE0C4F88C52052002F0CDFFC4F885
:1031C0008C62052002F0C8FFC4F88C52D4F80002CB
:1031D00040B19DF80000BDF80410385C08439DF82C
:1031E00000107854BDF8041008EA4100ADF804005E
:1031F000BDF80400FF28DDD9102002F0ADFF9DF8D6
:103200000000401C8DF800009DF800000928CED376
:10321000C4F88852BDE8FC81000042424C00002006
:10322000D406002010B500F00DF800F00BF800F007
:1032300009F8FFF7B1FE00F027F8BDE81040FFF7EE
:10324000D9BE000010B50F4C0020C4F88802102031
:1032500004F5227402F080FF0120FFF731FE4220C6
:10326000FFF72EFE0020FFF72BFE0020FFF728FEC1
:103270000020FFF725FE01202060BDE8104010204F
:1032800002F06ABF0000424210B5144C0020C4F89E
:103290008802012004F52274FFF712FE4420FFF794
:1032A0000FFE0020FFF70CFE0120FFF709FE0320B0
:1032B000FFF706FE0020FFF703FE0020FFF700FEE9
:1032C0000020FFF7FDFD0020FFF7FAFD0120206040
:1032D000BDE81040102002F03FBF00000000424255
:1032E000F0B44848D0ED000A9FED470A47486FF018
:1032F000130370EE600AFDEEE00A10EE902AD0EDA6
:10330000000A434870EE600AFDEEE00A10EE901AE3
:10331000D0ED000A994230EE600ABDEEC00A10EE10
:10332000100A02DD142900DA00219A4202DD142A73
:1033300000DA0022984202DD142800DA0020354D20
:103340009FED350A29B9D5ED000A80EE801A85ED8A
:10335000001A324E28B9D6ED000A80EE801A86EDAA
:10336000001A2F4B304C2F4F1B6894ED000AF1EEE2
:10337000040ABB4202D130EE200A04E02B4FBB42CC
:1033800003D130EE600A84ED000AB5EEC00AF1EE1A
:1033900010FA03D29FED260A84ED000A00EE101AFF
:1033A0009FED263A2349F8EEC00A00EE102AF8EE07
:1033B000C01A00EE100AB8EEC01A94ED000AC0EE72
:1033C000032A20EE802A61EE801A9FED1D0ADFEDB0
:1033D0001A0A21EE000A22EE202A61EEA01A22EE3D
:1033E000800ADFED182A20EE201A82EE220A86EDEE
:1033F000001AC1EEA20A85ED000AC1ED000AF0BC78
:10340000FEF728BAE801002000000043EC0100208C
:10341000F0010020C80100209A99993FD0010020B6
:10342000F801002000003041B001002000001041F0
:1034300000000000CC0100200000003C0000FA4326
:10344000DB0F493F00007A440149086270470000E1
:1034500000000E42044A0029116801D0014300E037
:10346000814311607047000030380240044A00294F
:10347000116801D0014300E08143116070470000F2
:1034800040380240044A0029116801D0014300E09D
:10349000814311607047000044380240044A00290B
:1034A000116801D0014300E08143116070470000C2
:1034B0002438024070B5204B1968204C11F00C01E3
:1034C00004D06610042903D0082903D004601BE04F
:1034D000066019E0184A121F1168C1F3805511687F
:1034E00001F03F0115B1B6FBF1F101E0B4FBF1F1E0
:1034F00014681268C4F388146143C2F30142521C79
:103500005200B1FBF2F1016019680F2202EA1111B9
:103510000B4A545C0168E14041601C68072505EADC
:103520009424145D21FA04F484601B6805EA533383
:10353000D25CD140C16070BD083802400024F40064
:1035400028010020054900220A700A70012802D0D3
:10355000042801D10520087070470000703802402F
:103560000021022807D003280BD004280BD00528FF
:103570000BD0002070474FF08042506A516200B279
:103580007047044A02E0044A00E0044A10681160EF
:1035900000B270472404004024080040240C00407E
:1035A000F0B54FF4FA66594B771032463946186831
:1035B00004F056FA564D186032463946286804F031
:1035C0004FFA544C286032463946206804F048FAD5
:1035D0003246514E20603946306804F041FA30607E
:1035E0002A6821681B686FF06304A2F2DC52A0F223
:1035F000DC50A1F2DC51A3F2DC53A24202DD642ACA
:1036000000DA0022A04202DD642800DA0020A34292
:1036100002DD642B00DA00239FED400A404C2AB9FA
:10362000D4ED160A80EE801A84ED161A28B9D4ED6E
:10363000170A80EE801A84ED171A2BB9D4ED180AF8
:1036400080EE801A84ED181A00EE101A354DB8EE8F
:10365000C00AD5ED000A30EE800ABDEEC00A10EEB9
:10366000101A002900DA0021404200EE900A5B4265
:1036700000EE102AF8EEE01A00EE903AB8EEC00A1A
:103680004FF4FA75B8EEE01A00EE901ADFED2A2A30
:10369000274BF8EEE00A21EE221A234A234820EEB7
:1036A000202A9FED240AC2EE000A02EE101A91FBB6
:1036B000F5F1B8EEC22A21EE822AC2EE001A02EE1D
:1036C000101AB8EEC22A22EE011A81EE002A9FEDEE
:1036D0001B0A80EE801A83ED002AC1EE800A82ED7B
:1036E000001AC0ED000AA07938B19FED150A401EFE
:1036F00082ED000A83ED000AA07193ED001A92EDAD
:10370000000ABDE8F040FEF7A5B800008C000020DC
:103710009000002094000020980000209A99993F82
:10372000FC010020B0010020C8010020CC010020D5
:10373000D00100200000FA43DB0F493F00007A442B
:10374000000000000E4A82EC020AC2E90201890070
:10375000414301EE901A0B4882ED041AF8EEE11A8B
:10376000C0ED001ADFED081A084821EE211A80ED9D
:10377000001A074880ED000A0648C0ED000A7047AD
:103780003C5B0020D4010020DB0F4940D801002021
:10379000DC010020E001002010B55D4C40F2791002
:1037A0000A2120600C20FEF739FC2168594B90FB60
:1037B000F1F0C0B218704FF4FA749FED572ADFEDA4
:1037C000572A9FED573A0A2802D90A20187092E02A
:1037D000DFED543A9FED544ADFED544A48B9B0EE5C
:1037E000631A21461B20F0EE440AB0EE640AFFF78C
:1037F000A9FF1878012809D1B0EE631A21461B20D1
:10380000F0EE440AB0EE640AFFF79CFF1878022835
:1038100009D1B0EE421A21461B20DFED450A9FED8B
:10382000450AFFF78FFF1878DFED433A9FED434AD3
:10383000032809D1B0EE421A21461220F0EE630AA5
:10384000B0EE440AFFF77EFF1878042809D1B0EEE5
:10385000421A21462F20F0EE630AB0EE440AFFF729
:1038600071FF1878DFED363A9FED364A052809D109
:10387000B0EE421A21461220F0EE630AB0EE440A7E
:10388000FFF760FF1878062809D1B0EE421A2146EA
:103890002F20F0EE630AB0EE440AFFF753FF1878CA
:1038A000DFED293A072809D1B0EE421A214612204D
:1038B000F0EE620AB0EE630AFFF744FF18780828BA
:1038C00009D1B0EE421A21462F20F0EE620AB0EE86
:1038D000630AFFF737FF1878092809D1B0EE421ABA
:1038E00021461220F0EE620AB0EE430AFFF72AFFEB
:1038F00018780A280BD12146BDE81040B0EE421AD4
:103900002F20F0EE620AB0EE430AFFF71BBF10BD96
:10391000C4010020AD010020E3A51B3EA245363EB8
:1039200085EB913ECDCCCC3D77BE1F3E5839343E21
:10393000D1225B3E91ED7C3E2DB29D3E643B9F3E8D
:10394000F2D24D3E3D0A973E0681953E0CB50022CF
:10395000274900920192086840F4803008604FF4D3
:10396000A043086800F4003001900098401C0090CB
:10397000019810B900989842F3D10868800334D5B3
:10398000012001901A484030026842F080520260E3
:103990001848026842F44042026015480830026844
:1039A0000260026842F400420260026842F4A052DF
:1039B0000260031F104A1A600A6842F080720A60AF
:1039C0000A689201FCD50D4940F205720A6001684F
:1039D00021F003010160016841F00201016001680A
:1039E000C1F381010229FAD10CBD01920CBD000086
:1039F000003802400070004008544007003C02407C
:103A00002DE9F05F314E002401259A469046894603
:103A1000002804DDC6F8B442C6F8B05203E0C6F888
:103A2000B452C6F8B042DFF8A8B0DBF81010484333
:103A300002F032FC0146274800F054FD264FB9F150
:103A4000000F04DDC7F88042C6F8B85203E0C7F89B
:103A50008052C6F8B842DBF814105E4609FB01F04C
:103A600002F01AFCDFF86C900146484600F038FD81
:103A70001A48B8F1000F04DDC0F8B042C0F8A852EF
:103A800003E0C0F8B052C0F8A842B16908FB01F0E9
:103A900002F002FC0146484600F020FD1048BAF151
:103AA000000F04DDC0F8A042C7F8B05203E0C0F830
:103AB000A052C7F8B042F1690AFB01F002F0ECFB3A
:103AC00001464846BDE8F05F00F006BD0080404278
:103AD000FC010020000401400000414200804142FE
:103AE00000004042DFED411A414890ED002AB4EE5B
:103AF000C02AF1EE10FA09D232EE212A80ED002A16
:103B0000B4EEC02AF1EE10FA0ADC0BE008DD32EE6A
:103B1000612A80ED002AB4EEC02AF1EE10FA01D23B
:103B200080ED000A90ED012AB4EEE02AF1EE10FAE1
:103B300009D232EE212A80ED012AB4EEE02AF1EE1C
:103B400010FA0ADC0BE008DD32EE612A80ED012A72
:103B5000B4EEE02AF1EE10FA01D2C0ED010A90EDC8
:103B6000022AB4EEC12AF1EE10FA09D272EE211A3D
:103B7000C0ED021AF4EEC11AF1EE10FA0ADC0BE005
:103B800008DD72EE611AC0ED021AF4EEC11AF1EE10
:103B900010FA01D280ED021ADFED181AB5EEC00A54
:103BA000144BF1EE10FA144A06D10168994203DA77
:103BB000914201D2C0ED001AF5EEC00AF1EE10FA02
:103BC00006D14168994203DA914201D2C0ED011A4F
:103BD000B5EEC01AF1EE10FA06D18168994203DA07
:103BE000914201D2C0ED021A704700000AD7A33CEF
:103BF000C05A0020CDCC4C3DCDCC4CBD00000000C7
:103C00004FF0E0210428086903D020F00400086187
:103C1000704740F00400FAE710B504F0A5FF012852
:103C200003D0BDE8104004F093BC10BD124810B59D
:103C3000016841F4700101601048016841F0010120
:103C400001600E4A00210832116002680C4B1A40D4
:103C50000260031D0B4A1A60026822F4802202608F
:103C600006480C300160FFF771FE03494FF0006019
:103C70008039086010BD000088ED00E00038024087
:103C8000FFFFF6FE1030002470B5048C24F0010410
:103C90000484058B048C4FF6FF7606EA0313134366
:103CA00025F0F3052B4324F00A020A4342F00101F8
:103CB0000383018470BDF0B5048C24F010040484E7
:103CC000078B068C4FF6FF7404EA011527F473473F
:103CD00004EA0331394304EA02220A4326F0A00130
:103CE000294341F0100102830184F0BD2DE9F04722
:103CF0009F480024C169B1F5C86F12DD9D490A785B
:103D00007AB99D4A40F2EE2312689A4209DB0122F9
:103D10000A709A490C709A490C709A490C709A4929
:103D20000C7080460078994D000642F20F764FF4F1
:103D3000FA7735D40221284600F03AFA80B30221FE
:103D4000284600F0FCF998F800004006284645D5C2
:103D500000F026FA80B2A8F80A00B8F80820414618
:103D6000904201D28E6300E08C63801A8A6B10440B
:103D700088618A6A801A00D54042B84207DD087916
:103D8000401CC0B20871052801D88A6100E00C719E
:103D90008869886288F800400021284600F0AAFA65
:103DA00098F80100000643D40421284600F000FAE8
:103DB000A0B30421284600F0C2F998F8010040069B
:103DC000284653D500F0EEF980B2A8F80E00B8F8F6
:103DD0000C20414690420ED2CE630DE000F0E0F997
:103DE0000146A8F8081098F8001041F0400188F842
:103DF00000100221D1E7CC63801ACA6B1044C8615D
:103E0000CA6A801A00D54042B84208DD4879401C91
:103E1000C0B24871052802D8CA6101E008E04C71BF
:103E2000C869C86288F801400021284600F0AEFA4F
:103E300098F80200000643D40821284600F0B8F99B
:103E4000A0B30821284600F07AF998F8020040064D
:103E5000284654D500F0A8F980B2A8F81200B8F8A6
:103E60001020414690420ED20E640DE000F09AF907
:103E70000146A8F80C1098F8011041F0400188F8AC
:103E800001100221D1E70C64801A0A6C1044086208
:103E90000A6B801A00D54042B84208DD8879401C80
:103EA000C0B28871052802D80A6201E008E08C716E
:103EB000086A086388F802400021284600F0B8FA32
:103EC00098F80300C14600064FD41021284600F0A0
:103ED0006FF9002849D01021A846284600F02FF994
:103EE00099F803004D46400633D5404600F05EF990
:103EF00080B2E882A98A88420ED26E640DE000F09A
:103F000053F90146A8F8101098F8021041F040014A
:103F100088F802100221D0E76C64401A696C0844EA
:103F20006862696B401A00D54042B84207DDE87903
:103F3000401CC0B2E871052801D8696200E0EC714C
:103F4000686A6863EC7000214046BDE8F04700F005
:103F5000AFBA4446404600F029F9A882E878022129
:103F600040F04000E8702046EFE7BDE8F087000031
:103F700074000020BE0100209C020020BD01002032
:103F8000BC010020BF010020C00100200000014052
:103F9000F0B50D460646012189B00846FFF772FAD2
:103FA00001211020FFF756FA4FF4D440022203906B
:103FB0008DF8102003208DF811000024404F8DF85B
:103FC00012408DF8132003A93846FDF7B5FE0122F3
:103FD00009213846FDF7ECFE01220B213846FDF79A
:103FE000E7FE01220D213846FDF7E2FE01220E21F7
:103FF0003846FDF7DDFE0696324EADF81450ADF8AA
:104000001C40ADF8164005A9304600F097FA01258E
:104010000F20ADF80040ADF80450ADF80800ADF841
:104020000240ADF806406946304600F0CDF8042065
:10403000ADF80000ADF80450ADF80240ADF8064010
:10404000ADF808406946304600F0BEF80820ADF8EB
:104050000000ADF80450ADF80240ADF80640ADF8F0
:1040600008406946304600F0AFF80C20ADF800007B
:10407000ADF80450ADF80240ADF80640ADF8084088
:104080006946304600F0A0F81B208DF820008DF81E
:1040900021408DF822408DF8235008A8FEF71AFD24
:1040A00001221E21304600F0EDF80121304600F0DB
:1040B00053F80121304600F045F809B0F0BD00008A
:1040C00000100240000001400248018A21F0010175
:1040D00001827047000001404FF08040018A018A50
:1040E00021F001010182704703480188018821F015
:1040F000010101807047000010040040034801885E
:10410000018821F001010180704700001008004083
:1041100003480188018821F00101018070470000F7
:10412000100C00400029018802D041F0800101E01C
:1041300021F0800101807047C94301827047C94363
:10414000018270470029018802D041F0010101E09D
:1041500021F0010101807047002930F8441F02D08E
:1041600041F4004101E0C1F30E010180704770B5D8
:104170000589048B068C25F007050D434FF6FC419D
:104180000C4040F201110C434FF6FF7101EA03119C
:1041900026F022061143314305810483018470BD5A
:1041A000406B7047806B7047C06B7047006C704706
:1041B00002460020138A92890B4202EA010202D0D1
:1041C000002A00D0012070472DE9F0410C460E88EE
:1041D0004988A2882389054616B3042E28D0082EC4
:1041E0002E8C4FF6FF702BD026F480562E84AF8B8A
:1041F0002E8C00EA022200EA013127F473473A4389
:1042000000EA0330104326F420420A4342F480516E
:10421000A8832984E1882846BDE8F04100F082B9EE
:10422000FFF732FDE1882846BDE8F04100F05EB9B5
:10423000FFF741FDE1882846BDE8F04100F05EB996
:1042400026F480762E84AF8B2E8C00EA012100EAC2
:104250000310104327F0F307384326F420620A4383
:1042600042F48071A8832984E1882846BDE8F041A2
:1042700000F050B900210180418001228280C1807C
:1042800001817047002A828901D00A4300E08A43F5
:104290008281704730B5028C22F001020284028CC8
:1042A0008388048B22F0020224F073050C882C43CF
:1042B0008D8915434A882A430C4DA84202D00C4DE3
:1042C000A8420DD122F00805CA8923F440732A437D
:1042D00022F004058A882A430D8A1D434B8A2B430A
:1042E0008380048389684163028430BD00000140FB
:1042F00000040140028C22F002020A43028470474B
:10430000028B22F008020A430283704770B5028CC8
:1043100022F010020284028C8388048B0D8824F41E
:10432000E6464FF6FF7404EA052535438E8922F0F0
:10433000200204EA061616434A8804EA02123243AF
:10434000104EB04202D0104EB04215D122F080067D
:10435000CA8923F4406304EA0212324322F0400681
:104360008A8804EA021232430E8A04EA86061E4351
:104370004B8A04EA8303334383800583896881631E
:10438000028470BD0000014000040140028C4FF621
:10439000FF7322F0200203EA0111114301847047E8
:1043A000028B4FF6FF7322F4006203EA01211143EE
:1043B0000183704770B5028C22F480720284028CF3
:1043C0008388848B0D8824F0730425438E894FF6EF
:1043D000FF7422F4007204EA062616434A8804EAAF
:1043E00002223243104EB04202D0104EB04215D1DC
:1043F00022F40066CA8923F4405304EA02223243BD
:1044000022F480668A8804EA022232430E8A04EA91
:1044100006161E434B8A04EA0313334383808583C5
:104420008968C163028470BD00000140000401403E
:10443000028C4FF6FF7322F4007203EA012111434C
:1044400001847047828B22F008020A4382837047FE
:1044500070B5028C22F480520284058C8288838B92
:104460000C8823F4E6464FF6FF7303EA0424344332
:1044700025F400568D8903EA053535434E8803EA55
:1044800006362E43084DA84202D0084DA84205D159
:1044900022F480450A8A03EA82122A4382808483B6
:1044A00089680164068470BD000001400004014079
:1044B000028C4FF6FF7322F4005203EA01311143DC
:1044C00001847047828B4FF6FF7322F4006203EA87
:1044D00001211143818370474163704781637047B5
:1044E000C16370470164704741627047028B22F0DC
:1044F0000C020283028B0A4302837047028B22F470
:1045000040620283028B4FF6FF7303EA01210A43E4
:1045100002837047828B22F00C028283828B0A43D3
:1045200082837047828B22F440628283828B4FF6B3
:10453000FF7303EA01210A438283704730B5028882
:10454000164C174DA0420DD0A8420BD0B0F1804FB1
:1045500008D0144B984205D0134B984202D0134B0D
:10456000984203D122F070034A881A43104B9842B4
:1045700006D0104B984203D022F440730A891A43A4
:1045800002804A68C2620A880285A04201D0A8421D
:1045900001D1897A01860121818230BD000001406C
:1045A000000401400004004000080040000C0040EE
:1045B00000100040001400404FF0FF314160002126
:1045C000018001814180817270470000142809DB5D
:1045D0001448D0F8100228B113480078012801D0FF
:1045E00000207047114A012000211160121F116044
:1045F000121F1160121F11600D4AC2F8B412C2F8E6
:10460000B0120C4BC3F88012C2F8B8120A4AC2F8B2
:10461000A812C2F8B012C3F8B012084AC2F8A01229
:104620007047000000004242AC01002040040140FD
:104630000080404200004142008041420000404270
:104640002DE9F04140F225512DED048B7C4800F01E
:1046500091FA00286FD07A48001D0488E0B2FCF778
:10466000C9FA002867D1E0B200F08EFB754840F22D
:10467000EE21006888425EDB01200025724E412C4D
:104680000ED1317941290BD170490A7842B9704A6B
:104690001570704A157008706F490D706F490D7074
:1046A000E2B26F496F4FDFF8C0C1704B32714B2CD3
:1046B00008D0492C08D04A2C06D01B782BB1012BEE
:1046C0000BD01EE018700CE01D70A4F14103072B05
:1046D00028D9082C14DC0A7013E0432C09D0472C8D
:1046E0000BD03D708CF80050412C1BD0452C19D0BC
:1046F00006E03D708CF8000002E038708CF8005045
:104700000D709FED5B0A5B4B9FED5B9A5B4F582CE6
:104710000CD0592C10D07B2C15D07D2C15D0622CB0
:1047200016D01AE0A4F140030B70EAE7D7ED000AB7
:1047300030EE800A04E07EE0D7ED000A30EEC00AD9
:1047400087ED000A09E070700FE00221717011E03E
:104750004B4C217839B1002121707178012904D0A6
:10476000022907D05EE00121F6E7B0781A54401C18
:10477000B07057E0D978502906D05878232848D00F
:10478000B078F07098462AE03E49087041E0B17870
:10479000081AFBF71DFF41EC110B9FED3B0B00F0DE
:1047A0004FFBF478B0EE408A08EB0400F0EE608A2C
:1047B00010F8010C3038FBF70BFF53EC182BFBF70C
:1047C00026FE41EC180BF068FBF720FF53EC182B8A
:1047D000FBF776FDFBF72DFF641EF060F470F078B8
:1047E0000428D4D298F801003038032811D2DFE829
:1047F00000F002070B0096ED030A87ED000A08E0BF
:1048000096ED030A224802E096ED030A214880ED66
:10481000000A7570B570F57086ED039A322115485F
:10482000FBF743FD97ED000AB5EEC00AF1EE10FA72
:1048300001D287ED009A0020BDEC048BBDE8F08129
:10484000004C00409C020020BC000020BD01002064
:10485000BC010020BE010020BF010020C0010020DB
:10486000C1010020E4010020E5010020E601002054
:104870000000C842E006002000000000B001002057
:10488000E9000020E70100200000000000002440B3
:10489000B4010020B801002070B5294C40F2255128
:1048A000204600F067F9E8B3204600F0F1F9C1B204
:1048B000244840F2EE22006890423EDB234A224C1C
:1048C000002510787B29215400D028B1401CC0B2AB
:1048D00010700B2802D030E015702EE01570A07A11
:1048E0007D282AD100210920FCF784FF617A8842C3
:1048F00023D117481A4905701648057016480570E7
:104900001648057001200870164805702179E07876
:1049100000F010FA144880ED000AA179607900F0E7
:1049200009FA00E009E0114880ED000A217AE079F7
:1049300000F000FA0E4880ED000A002070BD000073
:10494000001001401C02002044070020BC00002091
:10495000BC010020BE010020BD010020BF010020DD
:10496000C001002080020020C8010020CC010020EE
:10497000D001002000B50C4B0022985C03F07CF9BC
:10498000521CD2B2182AF8D308480078012809D15D
:10499000054B00225233985C03F06EF9521CD2B2E0
:1049A000082AF8D300BD000012070020C201002031
:1049B00070B5464C40F22551204600F0DBF8002847
:1049C00016D0204600F064F9C1B2414840F2EE2210
:1049D0000068904277DB404A3E4C002550797B29A5
:1049E000215400D028B1401CC0B250710B2802D015
:1049F00069E0557167E05571A07A7D2863D1002187
:104A00000920FCF7F7FE617A88425CD13348344ACA
:104A10000570607830B1012823D0022821D0032806
:104A20003CD050E02F48157005702F4805702F4876
:104A300005702F4805702F4805702179E07800F047
:104A400079F92D4880ED000AA179607900F072F9BA
:104A50002A4880ED000A217AE07900F06BF92848B5
:104A60002FE001211170012804D12648007808B9EF
:104A7000254801702179E07800F05CF9234880ED49
:104A8000000AA179607900F055F9214880ED000A0B
:104A9000217AE07900F04EF91E4812E02179E078A1
:104AA00000F048F91C4880ED000AA179607900F017
:104AB00041F91A4880ED000A217AE07900F03AF9CC
:104AC000174880ED000A002070BD0000004800403B
:104AD0001C02002044070020BC00002080020020AF
:104AE000E9000020BC010020BE010020BD01002023
:104AF000BF010020C0010020C8010020CC0100201F
:104B0000D0010020FD000020E80000200C01002062
:104B10001001002014010020F0000020F40000200B
:104B2000F800002000B50C4B0022985C03F0ACF8B4
:104B3000521CD2B2182AF8D308480078012809D1AB
:104B4000054B00225233985C03F09EF8521CD2B2FF
:104B5000082AF8D300BD000012070020C20100207F
:104B60000029818902D041F4005101E021F4005173
:104B70008181704770B501F01F0501260024C1F343
:104B8000421306FA05F2012B0FD0022B0FD0838AB5
:104B90004FEA11210088134206FA01F600EA0600E6
:104BA00001D000B10124204670BD8389F0E7038A5B
:104BB000EEE710B5C1F3421301F01F040121A1403B
:104BC000012B07D0022B07D01430002A026805D031
:104BD0000A4304E00C30F8E71030F6E78A4302603D
:104BE00010BD00007FB50446008A0D46C98820F438
:104BF000405001432182A08941F20C618843A98879
:104C00002A8911436A8902431143A181A08A20F4B1
:104C10004071A8890843A0826846FEF74BFC1A48F9
:104C2000844202D01948844201D1039800E00298DE
:104C3000A189090400EBC00101EB0010296801D52E
:104C4000490000E08900B0FBF1F06422B0FBF2F112
:104C500009010B096FF018056B4300EB8300A38972
:104C60001D044FF0320306D503EBC000B0FBF2F099
:104C700000F0070005E003EB0010B0FBF2F000F0DD
:104C80000F00084320817FBD001001400014014047
:104C90008088C0F308007047FEE7000070B5214926
:104CA000214D2DED028B9FED1D8B887858B1002092
:104CB0008870D1ED020A05EB8001401CC0B2C1ED45
:104CC000000A6428F7D3012005EB8001401CD1EDD8
:104CD000000AC0B241ED010A6428F5D385ED630AEC
:104CE000002455F82400FBF791FC53EC182BFBF73C
:104CF000E7FA641C41EC180BE4B2642CF1D351ECDC
:104D0000180B9FED0A0B53EC102BFBF7F2FBFBF794
:104D100090FCBDEC028B00EE100A70BD000000009C
:104D20000000000084020020545B0020000000000E
:104D30000000594070B501EB002004B24FF47A75C1
:104D400094FBF5F005FB10402DED028BFBF740FCCA
:104D50009FED0B1B53EC112BFBF759FB41EC180B90
:104D600094FBF5F0FBF734FC53EC182BFBF7A8FA97
:104D7000FBF75FFCBDEC028B00EE100A70BD00007B
:104D8000FCA9F1D24D62503F164B10B5A3F11002B1
:104D90000024917A7228585400D001B3491CC8B23B
:104DA000907205281CD194721878722818D15878FE
:104DB000652815D19878732812D1D87865280FD135
:104DC000187974280CD1BFF34F8F07480168074A40
:104DD00001F4E06111430160BFF34F8FFEE794726D
:104DE00010BD0000CC0000200CED00E00400FA052E
:104DF0000FB4054B10B503A9044A029800F02EFF2A
:104E000010BC5DF814FB0000B5610008240100200F
:104E100003B401984100009850EAC12018BF042053
:104E20004A0D18BF40F0010040F2FF72B2EB515F33
:104E300008BF40F00200012808BF052002B07047FB
:104E40002DE9F04D2DED040B2DED0E8B96B0DDE927
:104E50002550279CDDF890A025F0004624F000485E
:104E6000BAF1000F14BF0121002101EB4502FC49FA
:104E700053184A1093422AD3002814BF0123002359
:104E800003EB44030B44F7498B4220D358EA00015B
:104E90009FEDF59B76D0DFF8D8B35D4503D1BAF12D
:104EA000000F05D188E0BAF1000F08BF002100D043
:104EB000012101EB450111F5001F08D8002814BF9E
:104EC0000121002101EB440111F5001F0BD99DEDDB
:104ED000261B9DED240B16B0BDEC0E8B04B0BDE877
:104EE000F04D00F069BE0027002DBCBFE1498845A8
:104EF00021DAE1498845A8BF02271CDAC3451ADC3C
:104F0000DE4901EB2851142908DDC1F1340220FAF1
:104F100002F101FA02F282420DD108E058B9C1F162
:104F2000140228FA02F101FA02F2424503D101F01B
:104F30000101C1F1020756EA0A0124D1002C22DA4C
:104F4000002D18BF022F01D0012F0AD0022000F03F
:104F50007FFE16B0BDEC0E8B04B0BDE8F04D00F046
:104F600013BE022000F074FE00F00EFE51EC100B98
:104F700081F0004141EC100B16B0BDEC0E8B04B07B
:104F8000BDE8F08D18E09FEDBEAB9FEDBF8B002814
:104F900071D1B848804522D105F1804010F58010CC
:104FA00008BFBAF1000F07D0B3450ADC002CA8BF38
:104FB0009DED260BE0DA0DE0B0EE490AF0EE690A4D
:104FC000DAE7002C06DA9DED260B51EC100B81F090
:104FD00000416FE0AE48784490ED000BCCE7D84537
:104FE0004DD1002C48DA2EB186423AD1BAF1000FE9
:104FF00042D126E0BAF1000F13D0022000F028FEC3
:1050000000F0F6FD8DED020B9DED240B8DED000BF8
:1050100010EE900A039961F31E0003909DED020BC0
:10502000AAE78DED02AB9DED240B1AEE901A10EE5F
:10503000900A8DED000B61F31E0003909DED020BB5
:105040009AE78DED028B9DED240B18EE901A10EE71
:10505000900A8DED000B61F31E0003909DED020B95
:105060008AE709DA9DED240B51EC190B53EC102B58
:10507000FBF73FFA1EE020E09DED240B7CE7864223
:105080001BDAB4F1804F0DD0A4F10050B0F1FF5005
:1050900013D1002D11DB9DED240B51EC100B02F010
:1050A000CBFB07E09DED240B53EC102B51EC100BC8
:1050B00000F0C2BC41EC100B5EE79DED240B51ECFF
:1050C000100B01F063F8BAF1000FCDE90E0142D1E7
:1050D0009FED710B46B3A6F1E040B0F17F600CD0BC
:1050E0005E4538D1002D00DAA7B3022F0CBF012096
:1050F0004FF0FF30FBF76CFADCE7002D01DD002CF0
:105100000DDA002D01DD002C1FDB002D16DA002C3E
:1051100014DB012F08BF9FED620B3FF42DAFB0EE03
:105120004A0AF0EE6A0A27E7022F18BF002D0CD0BA
:10513000012F0AD1002DFFF61FAF06E0002DB8BFEA
:10514000002C08DA012F3FF417AFB0EE480AF0EE5A
:10515000680A11E71BE0012000EBE57050EA070147
:1051600015D0791EB0EE498AF0EE698A084308BF6F
:105170009FED4D8B4E480025804570DD4D494E48D2
:10518000884514DDB0420DDB002C19DB2FE0012037
:1051900000F05EFD16B0BDEC0E8B04B0BDE8F04D26
:1051A00000F016BDB34502DC002C09DC1FE086428E
:1051B00002DA002C1BDA03E05E452BDD002C16DD45
:1051C000022000F045FD00F013FD8DED020B53ECC5
:1051D0001A2B51EC180BFBF71AF9CDE900010399D2
:1051E000019861F31E0003909DED020BC4E60220BE
:1051F00000F02EFD00F00CFD10EE901A18EE900A53
:105200008DED020B8DED008B61F31E0003909DED83
:10521000020BB1E69DED0E0B53EC192B51EC100B6C
:10522000FBF7EFF89FED260BCDE9080153EC102BAF
:105230009DED080B51EC100BFBF7E9F89FED221BDD
:1052400053EC112BFBF7E0F89DED081B53EC112BF1
:10525000FBF7DDF89FED1E1B53EC112B3CE08CE0BF
:10526000FFFF1F00FFFF0F00000000000000F03FE5
:105270000000F03F0000F07F0000404301FCFFFF12
:10528000000000000000F07F0000000000000000AF
:1052900076550000000000000000000000000080C3
:1052A000000000000000F0FF000000000000F0BF60
:1052B0000000E0410000F043FFFFEF3F000000006E
:1052C000000000000000D03F555555555555D53FBD
:1052D000000000000000E03FFBF796F89DED080B92
:1052E00041EC1A0B53EC102B51EC100BFBF78FF821
:1052F00053EC1A2BFBF78BF841EC1A0B9FEDFE0BCE
:1053000053EC102B9DED080B51EC100BFBF77FF8C5
:1053100041EC1B0B9FEDFA0B51EC1A0B53EC102BCD
:10532000FBF775F841EC1A0B9FEDF70B53EC102BC4
:105330009DED080B51EC100BFBF769F853EC1A2BA1
:10534000FBF75FF841EC1A0B51EC1B0B53EC1A2BDB
:10535000FAF7B6FF0690CDE906519DED060B53EC2A
:105360001B2B51EC100BFBF74CF853EC1A2BFBF7F3
:105370004BF841EC100B00F0A1B90020B6F5801FEE
:105380000EDA9FEDE30B53EC102B9DED0E0B51EC61
:10539000100BFBF73CF8CDE90E016FF034000E4620
:1053A00000EB2650A0F2FF37C6F31300DA4940F0B5
:1053B0007F6646F040568842D8BF002408DDD749B2
:1053C0008142C8BF012403DC0024A6F580167F1C9F
:1053D000D348784400EBC4000F9690ED00CB9DEDD0
:1053E0000E0B53EC1C2B51EC100BFBF70AF89DED48
:1053F0000E0B41EC1B0B53EC1C2B51EC100BFAF772
:105400005FFF41EC100B51EC190B53EC102BFBF729
:1054100070F841EC1D0B51EC1B0B53EC1D2BFAF7F4
:10542000F6FF41EC1A0BBF488DED10AB7844109598
:1054300090ED000B4FF0005040EA660000EB844016
:105440008DED080B00F5002009909DED080B53EC45
:105450001C2B51EC100BFAF7D4FF9DED0E1B53ECF7
:10546000112BFAF7D1FF41EC100B53EC102B9DEDF3
:10547000100B51EC100BFAF7CAFF9DED080B41EC35
:105480001C0B53EC102B9DED100B51EC100BFAF78D
:10549000BEFF53EC1B2BFAF7B7FF53EC1C2BFAF7AC
:1054A000B0FF53EC1D2BFAF7B2FF41EC1C0B53EC91
:1054B0001A2B51EC1A0BFAF7AAFF41EC1B0B9A4876
:1054C0000621B0EE4B0AF0EE6B0A784400F0E0FAE9
:1054D000B0EE401AF0EE601AB0EE41DAF0EE61DAAA
:1054E00053EC1B2B51EC1B0BFAF791FF53EC1D2BCC
:1054F000FAF78DFF9DED100B41EC1B0B53EC1A2BB3
:1055000051EC100BFAF7DCFE53EC1C2BFAF77FFF83
:1055100053EC1B2BFAF7D4FE9DED100B41EC1B0B4B
:1055200053EC102B51EC100BFAF771FF41EC1D0BF3
:105530009FED7FEB53EC1E2BFAF7C2FE53EC1B2BB7
:10554000FAF7BEFE0890CDE908519DED080B53EC2B
:105550001E2B51EC100BFAF754FF53EC1D2BFAF7EE
:1055600050FF53EC1B2BFAF74FFF9DED080B41EC5E
:105570001D0B53EC102B9DED100B51EC100BFAF79B
:1055800046FF41EC1B0B53EC1A2B51EC1D0BFAF7A9
:105590003EFF9DED080B41EC1A0B53EC102B51EC28
:1055A0001C0BFAF734FF53EC1A2BFAF789FE41EC87
:1055B0001A0B51EC1B0B53EC1A2BFAF781FE0C90D3
:1055C000CDE90C519DED0C0B53EC1B2B51EC100B4A
:1055D000FAF717FF53EC1A2BFAF716FF41EC1B0BE7
:1055E0009FED550B53EC102B9DED0C0B51EC100B5C
:1055F000FAF70DFF41EC1A0B9FED510B51EC1B0B11
:1056000053EC102BFAF703FF41EC1B0B9FED4E0BF5
:1056100053EC102B9DED0C0B51EC100BFAF7F7FE31
:1056200053EC1B2BFAF74CFE41EC100B4848784426
:1056300000EBC40090ED001B51EC100B53EC112B50
:10564000FAF73EFE41EC1B0B3846FAF7C1FFCDE9F5
:10565000080153EC1B2B51EC1A0BFAF731FE41EC0D
:10566000100B3C48784400EBC40090ED00CB51ECAB
:10567000100B53EC1C2BFAF723FE9DED081B53EC8B
:10568000112BFAF71DFE0690CDE906519DED080B92
:1056900053EC102B9DED060B51EC100BFAF7B1FEFD
:1056A00053EC1C2BFAF7ADFE53EC1A2BFAF7A9FEBC
:1056B00053EC1B2BFAF7A8FE41EC100B9DED261BBB
:1056C00053EC102B8DED001B00959DED260B51EC3E
:1056D000100BFAF79CFE9DED000B41EC1A0B53ECFE
:1056E000102B9DED260B51EC100BFAF78AFE9DED69
:1056F000061B53EC112B2FE0000000604715F73F0D
:10570000FE822B654715F73F44DF5DF80BAE543E34
:1057100000000000000040438E9803007AB60B00A2
:10572000F2500000205100002A500000000000004C
:105730000000000000000840000000E009C7EE3F44
:10574000FD033ADC09C7EE3FF5015B14E02F3EBED6
:10575000B64E0000704E0000FAF759FE53EC1A2BBB
:10576000FAF7AEFD9DED060B41EC1A0B53EC102B36
:105770009DED000B51EC100BFAF749FECDE90C0141
:105780009DED0C0B51EC1A0B53EC102BFAF798FD16
:10579000CDE902010C46AA498C422FDB611A08436D
:1057A00018D19DED0C0B53EC102B9DED020B51EC21
:1057B000100BFAF726FE41EC1B0B9FEDA30B51ECEF
:1057C0001A0B53EC102BFAF77BFD53EC1B2BFBF75A
:1057D0002FF82DD2022000F03BFA00F009FA10EE6B
:1057E000901A18EE900A8DED020B8DED008B61F38F
:1057F0001E0003909DED020BFFF7BEBB944A24F000
:105800000041914214D39349214408437FF4EFAC03
:105810009DED0C0B53EC102B9DED020B51EC100B7E
:10582000FAF7EFFD53EC1A2BFBF702F87FF6DFAC2B
:1058300024F000408849894A002601EB2051824229
:105840002BDA481C4FF4801121FA00F02044844ADE
:10585000C0F30A517A44A1F2FF3192ED000B814A64
:105860008DED080BCA4020EA0202C0F3130040F499
:105870008010C1F1140120FA01F60992002CB8BF82
:1058800076429DED080B53EC102B9DED0C0B51EC6B
:10589000100BFAF7B6FDCDE90C019DED0C0B51ECA8
:1058A0001A0B53EC102BFAF70BFD9FED6F0B0890C2
:1058B000CDE9085153EC102B9DED080B51EC100B6A
:1058C000FAF7A5FD41EC1B0B9FED690B53EC102B78
:1058D0009DED080B51EC100BFAF799FD9DED0C0BAB
:1058E00041EC1C0B53EC102B9DED080B51EC100BF5
:1058F000FAF787FD53EC1A2BFAF786FD9FED5E1B36
:1059000053EC112BFAF783FD53EC1C2BFAF7D8FC60
:1059100041EC1A0B51EC1B0B53EC1A2BFAF7D0FC91
:10592000CDE902019DED020B53EC1B2B51EC100B4A
:10593000FAF767FD53EC1A2BFAF766FD9DED020BA3
:1059400041EC1A0B53EC102B51EC100BFAF75FFDE6
:10595000CDE908014A489DED080B0521784400F087
:1059600097F89DED081B51EC100B53EC112BFAF737
:105970004EFD9DED021B53EC112BFAF745FDCDE9D1
:1059800006019DED020B53EC1A2B51EC100BFAF7AC
:105990003EFD53EC1A2BFAF793FC9FED3B0B41ECC9
:1059A0001A0B53EC102B9DED060B51EC100BFAF774
:1059B00028FD9DED060B41EC1B0B53EC102B9DEDD0
:1059C000020B51EC100BFAF722FD53EC1B2BFAF7EC
:1059D00090FD53EC1A2BFAF714FD9DED021B53ECCE
:1059E000112BFAF70EFD53EC192BFAF70DFDCDE94B
:1059F000020101EB065001150029C8BF039015DC18
:105A00009DED020B324651EC100BFAF7F9FEFFF751
:105A1000FFF9042808BF00F0FBF832469DED020BA9
:105A200051EC100BFAF7ECFECDE902019DED020BF3
:105A300051EC180B53EC102BFAF7E9FCFFF73ABBCB
:105A40000000904000000000FE822B654715973C47
:105A500000CC904000346F3F01FCFFFF0000E03FAE
:105A6000F84C0000FFFF0F0000000000432EE63F4F
:105A7000396CA80C615C20BEEF39FAFE422EE63F7D
:105A8000C84B0000000000000000000000000040C3
:105A900070B504462DED028B4D1E00EBC500B0EE37
:105AA000408AF0EE608A90ED000B35F0060017D0CA
:105AB00053EC182B51EC100BFAF7A9FC41EC100B2E
:105AC0006D1E04EBC50090ED001B51EC100B53EC68
:105AD000112BFAF7F5FB41EC100B35F00600E7D17E
